{
  "_format": "hh-sol-artifact-1",
  "contractName": "SaleHandler",
  "sourceName": "contracts/core/SaleHandler.sol",
  "abi": [
    {
      "inputs": [
        {
          "internalType": "address",
          "name": "_token",
          "type": "address"
        },
        {
          "internalType": "uint256",
          "name": "_tokenPrice",
          "type": "uint256"
        }
      ],
      "stateMutability": "nonpayable",
      "type": "constructor"
    },
    {
      "anonymous": false,
      "inputs": [
        {
          "indexed": false,
          "internalType": "bool",
          "name": "active",
          "type": "bool"
        }
      ],
      "name": "SaleStateChanged",
      "type": "event"
    },
    {
      "anonymous": false,
      "inputs": [
        {
          "indexed": true,
          "internalType": "address",
          "name": "buyer",
          "type": "address"
        },
        {
          "indexed": false,
          "internalType": "uint256",
          "name": "amount",
          "type": "uint256"
        },
        {
          "indexed": false,
          "internalType": "uint256",
          "name": "cost",
          "type": "uint256"
        }
      ],
      "name": "TokensPurchased",
      "type": "event"
    },
    {
      "inputs": [],
      "name": "buyTokens",
      "outputs": [],
      "stateMutability": "payable",
      "type": "function"
    },
    {
      "inputs": [],
      "name": "owner",
      "outputs": [
        {
          "internalType": "address",
          "name": "",
          "type": "address"
        }
      ],
      "stateMutability": "view",
      "type": "function"
    },
    {
      "inputs": [],
      "name": "saleActive",
      "outputs": [
        {
          "internalType": "bool",
          "name": "",
          "type": "bool"
        }
      ],
      "stateMutability": "view",
      "type": "function"
    },
    {
      "inputs": [],
      "name": "startSale",
      "outputs": [],
      "stateMutability": "nonpayable",
      "type": "function"
    },
    {
      "inputs": [],
      "name": "stopSale",
      "outputs": [],
      "stateMutability": "nonpayable",
      "type": "function"
    },
    {
      "inputs": [],
      "name": "token",
      "outputs": [
        {
          "internalType": "address",
          "name": "",
          "type": "address"
        }
      ],
      "stateMutability": "view",
      "type": "function"
    },
    {
      "inputs": [],
      "name": "tokenPrice",
      "outputs": [
        {
          "internalType": "uint256",
          "name": "",
          "type": "uint256"
        }
      ],
      "stateMutability": "view",
      "type": "function"
    }
  ],
  "bytecode": "0x608060405234801561000f575f80fd5b506040516109423803806109428339818101604052810190610031919061014f565b815f806101000a81548173ffffffffffffffffffffffffffffffffffffffff021916908373ffffffffffffffffffffffffffffffffffffffff1602179055503360015f6101000a81548173ffffffffffffffffffffffffffffffffffffffff021916908373ffffffffffffffffffffffffffffffffffffffff16021790555080600281905550505061018d565b5f80fd5b5f73ffffffffffffffffffffffffffffffffffffffff82169050919050565b5f6100eb826100c2565b9050919050565b6100fb816100e1565b8114610105575f80fd5b50565b5f81519050610116816100f2565b92915050565b5f819050919050565b61012e8161011c565b8114610138575f80fd5b50565b5f8151905061014981610125565b92915050565b5f8060408385031215610165576101646100be565b5b5f61017285828601610108565b92505060206101838582860161013b565b9150509250929050565b6107a88061019a5f395ff3fe60806040526004361061006f575f3560e01c8063b66a0e5d1161004d578063b66a0e5d146100f1578063d0febe4c14610107578063e36b0b3714610111578063fc0c546a146101275761006f565b806368428a1b146100735780637ff9b5961461009d5780638da5cb5b146100c7575b5f80fd5b34801561007e575f80fd5b50610087610151565b6040516100949190610496565b60405180910390f35b3480156100a8575f80fd5b506100b1610163565b6040516100be91906104c7565b60405180910390f35b3480156100d2575f80fd5b506100db610169565b6040516100e8919061051f565b60405180910390f35b3480156100fc575f80fd5b5061010561018e565b005b61010f610271565b005b34801561011c575f80fd5b50610125610378565b005b348015610132575f80fd5b5061013b610459565b604051610148919061051f565b60405180910390f35b60035f9054906101000a900460ff1681565b60025481565b60015f9054906101000a900473ffffffffffffffffffffffffffffffffffffffff1681565b60015f9054906101000a900473ffffffffffffffffffffffffffffffffffffffff1673ffffffffffffffffffffffffffffffffffffffff163373ffffffffffffffffffffffffffffffffffffffff161461021d576040517f08c379a000000000000000000000000000000000000000000000000000000000815260040161021490610592565b60405180910390fd5b600160035f6101000a81548160ff0219169083151502179055507fe333f8a36ee86e754548af2d6f50c73ff0d501e22e6c784662123dbbe493c60260016040516102679190610496565b60405180910390a1565b60035f9054906101000a900460ff166102bf576040517f08c379a00000000000000000000000000000000000000000000000000000000081526004016102b6906105fa565b60405180910390fd5b5f3411610301576040517f08c379a00000000000000000000000000000000000000000000000000000000081526004016102f890610662565b60405180910390fd5b5f600254670de0b6b3a76400003461031991906106ad565b610323919061071b565b90503373ffffffffffffffffffffffffffffffffffffffff167f8fafebcaf9d154343dad25669bfa277f4fbacd7ac6b0c4fed522580e040a0f33823460405161036d92919061074b565b60405180910390a250565b60015f9054906101000a900473ffffffffffffffffffffffffffffffffffffffff1673ffffffffffffffffffffffffffffffffffffffff163373ffffffffffffffffffffffffffffffffffffffff1614610407576040517f08c379a00000000000000000000000000000000000000000000000000000000081526004016103fe90610592565b60405180910390fd5b5f60035f6101000a81548160ff0219169083151502179055507fe333f8a36ee86e754548af2d6f50c73ff0d501e22e6c784662123dbbe493c6025f60405161044f9190610496565b60405180910390a1565b5f8054906101000a900473ffffffffffffffffffffffffffffffffffffffff1681565b5f8115159050919050565b6104908161047c565b82525050565b5f6020820190506104a95f830184610487565b92915050565b5f819050919050565b6104c1816104af565b82525050565b5f6020820190506104da5f8301846104b8565b92915050565b5f73ffffffffffffffffffffffffffffffffffffffff82169050919050565b5f610509826104e0565b9050919050565b610519816104ff565b82525050565b5f6020820190506105325f830184610510565b92915050565b5f82825260208201905092915050565b7f4e6f7420636f6e7472616374206f776e657200000000000000000000000000005f82015250565b5f61057c601283610538565b915061058782610548565b602082019050919050565b5f6020820190508181035f8301526105a981610570565b9050919050565b7f546f6b656e2073616c65206973206e6f742061637469766500000000000000005f82015250565b5f6105e4601883610538565b91506105ef826105b0565b602082019050919050565b5f6020820190508181035f830152610611816105d8565b9050919050565b7f4d7573742073656e642045544820746f2062757920746f6b656e7300000000005f82015250565b5f61064c601b83610538565b915061065782610618565b602082019050919050565b5f6020820190508181035f83015261067981610640565b9050919050565b7f4e487b71000000000000000000000000000000000000000000000000000000005f52601160045260245ffd5b5f6106b7826104af565b91506106c2836104af565b92508282026106d0816104af565b915082820484148315176106e7576106e6610680565b5b5092915050565b7f4e487b71000000000000000000000000000000000000000000000000000000005f52601260045260245ffd5b5f610725826104af565b9150610730836104af565b9250826107405761073f6106ee565b5b828204905092915050565b5f60408201905061075e5f8301856104b8565b61076b60208301846104b8565b939250505056fea26469706673582212206deb7f674406982d01319f56668a1b0f1c182c12e492c65c6896525b7595472964736f6c63430008140033",
  "linkReferences": {},
  "deployedLinkReferences": {}
}