{
  "_format": "hh-sol-artifact-1",
  "contractName": "FairLaunch",
  "sourceName": "contracts/core/FairLaunch.sol",
  "abi": [
    {
      "inputs": [
        {
          "internalType": "address",
          "name": "_token",
          "type": "address"
        },
        {
          "internalType": "uint256",
          "name": "_startTime",
          "type": "uint256"
        },
        {
          "internalType": "uint256",
          "name": "_endTime",
          "type": "uint256"
        },
        {
          "internalType": "uint256",
          "name": "_tokenPrice",
          "type": "uint256"
        }
      ],
      "stateMutability": "nonpayable",
      "type": "constructor"
    },
    {
      "anonymous": false,
      "inputs": [
        {
          "indexed": true,
          "internalType": "address",
          "name": "contributor",
          "type": "address"
        },
        {
          "indexed": false,
          "internalType": "uint256",
          "name": "amount",
          "type": "uint256"
        }
      ],
      "name": "ContributionReceived",
      "type": "event"
    },
    {
      "anonymous": false,
      "inputs": [
        {
          "indexed": true,
          "internalType": "address",
          "name": "contributor",
          "type": "address"
        },
        {
          "indexed": false,
          "internalType": "uint256",
          "name": "amount",
          "type": "uint256"
        }
      ],
      "name": "TokensClaimed",
      "type": "event"
    },
    {
      "inputs": [],
      "name": "claimTokens",
      "outputs": [],
      "stateMutability": "nonpayable",
      "type": "function"
    },
    {
      "inputs": [],
      "name": "contribute",
      "outputs": [],
      "stateMutability": "payable",
      "type": "function"
    },
    {
      "inputs": [
        {
          "internalType": "address",
          "name": "",
          "type": "address"
        }
      ],
      "name": "contributions",
      "outputs": [
        {
          "internalType": "uint256",
          "name": "",
          "type": "uint256"
        }
      ],
      "stateMutability": "view",
      "type": "function"
    },
    {
      "inputs": [],
      "name": "endTime",
      "outputs": [
        {
          "internalType": "uint256",
          "name": "",
          "type": "uint256"
        }
      ],
      "stateMutability": "view",
      "type": "function"
    },
    {
      "inputs": [],
      "name": "owner",
      "outputs": [
        {
          "internalType": "address",
          "name": "",
          "type": "address"
        }
      ],
      "stateMutability": "view",
      "type": "function"
    },
    {
      "inputs": [],
      "name": "startTime",
      "outputs": [
        {
          "internalType": "uint256",
          "name": "",
          "type": "uint256"
        }
      ],
      "stateMutability": "view",
      "type": "function"
    },
    {
      "inputs": [],
      "name": "token",
      "outputs": [
        {
          "internalType": "address",
          "name": "",
          "type": "address"
        }
      ],
      "stateMutability": "view",
      "type": "function"
    },
    {
      "inputs": [],
      "name": "tokenPrice",
      "outputs": [
        {
          "internalType": "uint256",
          "name": "",
          "type": "uint256"
        }
      ],
      "stateMutability": "view",
      "type": "function"
    },
    {
      "inputs": [],
      "name": "totalContributed",
      "outputs": [
        {
          "internalType": "uint256",
          "name": "",
          "type": "uint256"
        }
      ],
      "stateMutability": "view",
      "type": "function"
    }
  ],
  "bytecode": "0x608060405234801562000010575f80fd5b5060405162000bfa38038062000bfa8339818101604052810190620000369190620001b6565b8282116200007b576040517f08c379a0000000000000000000000000000000000000000000000000000000008152600401620000729062000283565b60405180910390fd5b835f806101000a81548173ffffffffffffffffffffffffffffffffffffffff021916908373ffffffffffffffffffffffffffffffffffffffff1602179055503360015f6101000a81548173ffffffffffffffffffffffffffffffffffffffff021916908373ffffffffffffffffffffffffffffffffffffffff16021790555082600281905550816003819055508060048190555050505050620002a3565b5f80fd5b5f73ffffffffffffffffffffffffffffffffffffffff82169050919050565b5f62000148826200011d565b9050919050565b6200015a816200013c565b811462000165575f80fd5b50565b5f8151905062000178816200014f565b92915050565b5f819050919050565b62000192816200017e565b81146200019d575f80fd5b50565b5f81519050620001b08162000187565b92915050565b5f805f8060808587031215620001d157620001d062000119565b5b5f620001e08782880162000168565b9450506020620001f387828801620001a0565b93505060406200020687828801620001a0565b92505060606200021987828801620001a0565b91505092959194509250565b5f82825260208201905092915050565b7f496e76616c69642074696d652072616e676500000000000000000000000000005f82015250565b5f6200026b60128362000225565b9150620002788262000235565b602082019050919050565b5f6020820190508181035f8301526200029c816200025d565b9050919050565b61094980620002b15f395ff3fe608060405260043610610085575f3560e01c806378e979251161005857806378e979251461012f5780637ff9b596146101595780638da5cb5b14610183578063d7bb99ba146101ad578063fc0c546a146101b757610085565b8063023f4147146100895780633197cbb6146100b357806342e94c90146100dd57806348c54b9d14610119575b5f80fd5b348015610094575f80fd5b5061009d6101e1565b6040516100aa9190610575565b60405180910390f35b3480156100be575f80fd5b506100c76101e7565b6040516100d49190610575565b60405180910390f35b3480156100e8575f80fd5b5061010360048036038101906100fe91906105ec565b6101ed565b6040516101109190610575565b60405180910390f35b348015610124575f80fd5b5061012d610202565b005b34801561013a575f80fd5b506101436103b9565b6040516101509190610575565b60405180910390f35b348015610164575f80fd5b5061016d6103bf565b60405161017a9190610575565b60405180910390f35b34801561018e575f80fd5b506101976103c5565b6040516101a49190610626565b60405180910390f35b6101b56103ea565b005b3480156101c2575f80fd5b506101cb61053a565b6040516101d89190610626565b60405180910390f35b60065481565b60035481565b6005602052805f5260405f205f915090505481565b6003544211610246576040517f08c379a000000000000000000000000000000000000000000000000000000000815260040161023d90610699565b60405180910390fd5b5f60055f3373ffffffffffffffffffffffffffffffffffffffff1673ffffffffffffffffffffffffffffffffffffffff1681526020019081526020015f2054116102c5576040517f08c379a00000000000000000000000000000000000000000000000000000000081526004016102bc90610701565b60405180910390fd5b5f600454670de0b6b3a764000060055f3373ffffffffffffffffffffffffffffffffffffffff1673ffffffffffffffffffffffffffffffffffffffff1681526020019081526020015f205461031a919061074c565b61032491906107ba565b90505f60055f3373ffffffffffffffffffffffffffffffffffffffff1673ffffffffffffffffffffffffffffffffffffffff1681526020019081526020015f20819055503373ffffffffffffffffffffffffffffffffffffffff167f896e034966eaaf1adc54acc0f257056febbd300c9e47182cf761982cf1f5e430826040516103ae9190610575565b60405180910390a250565b60025481565b60045481565b60015f9054906101000a900473ffffffffffffffffffffffffffffffffffffffff1681565b60025442101580156103fe57506003544211155b61043d576040517f08c379a000000000000000000000000000000000000000000000000000000000815260040161043490610834565b60405180910390fd5b5f341161047f576040517f08c379a0000000000000000000000000000000000000000000000000000000008152600401610476906108c2565b60405180910390fd5b3460055f3373ffffffffffffffffffffffffffffffffffffffff1673ffffffffffffffffffffffffffffffffffffffff1681526020019081526020015f205f8282546104cb91906108e0565b925050819055503460065f8282546104e391906108e0565b925050819055503373ffffffffffffffffffffffffffffffffffffffff167f1bb460ccaaf70fbacfec17a376f8acbd278c1405590ffcc8ebe4b88daf4f64ad346040516105309190610575565b60405180910390a2565b5f8054906101000a900473ffffffffffffffffffffffffffffffffffffffff1681565b5f819050919050565b61056f8161055d565b82525050565b5f6020820190506105885f830184610566565b92915050565b5f80fd5b5f73ffffffffffffffffffffffffffffffffffffffff82169050919050565b5f6105bb82610592565b9050919050565b6105cb816105b1565b81146105d5575f80fd5b50565b5f813590506105e6816105c2565b92915050565b5f602082840312156106015761060061058e565b5b5f61060e848285016105d8565b91505092915050565b610620816105b1565b82525050565b5f6020820190506106395f830184610617565b92915050565b5f82825260208201905092915050565b7f46616972206c61756e6368207374696c6c206f6e676f696e67000000000000005f82015250565b5f61068360198361063f565b915061068e8261064f565b602082019050919050565b5f6020820190508181035f8301526106b081610677565b9050919050565b7f4e6f20636f6e747269627574696f6e20666f756e6400000000000000000000005f82015250565b5f6106eb60158361063f565b91506106f6826106b7565b602082019050919050565b5f6020820190508181035f830152610718816106df565b9050919050565b7f4e487b71000000000000000000000000000000000000000000000000000000005f52601160045260245ffd5b5f6107568261055d565b91506107618361055d565b925082820261076f8161055d565b915082820484148315176107865761078561071f565b5b5092915050565b7f4e487b71000000000000000000000000000000000000000000000000000000005f52601260045260245ffd5b5f6107c48261055d565b91506107cf8361055d565b9250826107df576107de61078d565b5b828204905092915050565b7f46616972206c61756e6368206e6f7420616374697665000000000000000000005f82015250565b5f61081e60168361063f565b9150610829826107ea565b602082019050919050565b5f6020820190508181035f83015261084b81610812565b9050919050565b7f436f6e747269627574696f6e206d7573742062652067726561746572207468615f8201527f6e207a65726f0000000000000000000000000000000000000000000000000000602082015250565b5f6108ac60268361063f565b91506108b782610852565b604082019050919050565b5f6020820190508181035f8301526108d9816108a0565b9050919050565b5f6108ea8261055d565b91506108f58361055d565b925082820190508082111561090d5761090c61071f565b5b9291505056fea2646970667358221220ff2f2374defec0748ebf5e05a05bcc5a037e2f587378f9fd359badd296ecd1c564736f6c63430008140033",
  "linkReferences": {},
  "deployedLinkReferences": {}
}