{
  "_format": "hh-sol-artifact-1",
  "contractName": "Vesting",
  "sourceName": "contracts/core/TestVesting.sol",
  "abi": [
    {
      "inputs": [
        {
          "internalType": "address",
          "name": "_token",
          "type": "address"
        },
        {
          "internalType": "uint256",
          "name": "_unlockTime",
          "type": "uint256"
        }
      ],
      "stateMutability": "nonpayable",
      "type": "constructor"
    },
    {
      "anonymous": false,
      "inputs": [
        {
          "indexed": true,
          "internalType": "address",
          "name": "recipient",
          "type": "address"
        },
        {
          "indexed": false,
          "internalType": "uint256",
          "name": "amount",
          "type": "uint256"
        }
      ],
      "name": "TokensClaimed",
      "type": "event"
    },
    {
      "anonymous": false,
      "inputs": [
        {
          "indexed": true,
          "internalType": "address",
          "name": "recipient",
          "type": "address"
        },
        {
          "indexed": false,
          "internalType": "uint256",
          "name": "amount",
          "type": "uint256"
        },
        {
          "indexed": false,
          "internalType": "uint256",
          "name": "cliff",
          "type": "uint256"
        }
      ],
      "name": "TokensVested",
      "type": "event"
    },
    {
      "anonymous": false,
      "inputs": [
        {
          "indexed": true,
          "internalType": "address",
          "name": "recipient",
          "type": "address"
        },
        {
          "indexed": false,
          "internalType": "uint256",
          "name": "amount",
          "type": "uint256"
        }
      ],
      "name": "VestingRevoked",
      "type": "event"
    },
    {
      "inputs": [],
      "name": "claimTokens",
      "outputs": [],
      "stateMutability": "nonpayable",
      "type": "function"
    },
    {
      "inputs": [
        {
          "internalType": "address",
          "name": "",
          "type": "address"
        }
      ],
      "name": "cliffTime",
      "outputs": [
        {
          "internalType": "uint256",
          "name": "",
          "type": "uint256"
        }
      ],
      "stateMutability": "view",
      "type": "function"
    },
    {
      "inputs": [],
      "name": "owner",
      "outputs": [
        {
          "internalType": "address",
          "name": "",
          "type": "address"
        }
      ],
      "stateMutability": "view",
      "type": "function"
    },
    {
      "inputs": [
        {
          "internalType": "address",
          "name": "recipient",
          "type": "address"
        }
      ],
      "name": "revokeVesting",
      "outputs": [],
      "stateMutability": "nonpayable",
      "type": "function"
    },
    {
      "inputs": [],
      "name": "token",
      "outputs": [
        {
          "internalType": "address",
          "name": "",
          "type": "address"
        }
      ],
      "stateMutability": "view",
      "type": "function"
    },
    {
      "inputs": [],
      "name": "totalVested",
      "outputs": [
        {
          "internalType": "uint256",
          "name": "",
          "type": "uint256"
        }
      ],
      "stateMutability": "view",
      "type": "function"
    },
    {
      "inputs": [],
      "name": "unlockTime",
      "outputs": [
        {
          "internalType": "uint256",
          "name": "",
          "type": "uint256"
        }
      ],
      "stateMutability": "view",
      "type": "function"
    },
    {
      "inputs": [
        {
          "internalType": "address",
          "name": "recipient",
          "type": "address"
        },
        {
          "internalType": "uint256",
          "name": "amount",
          "type": "uint256"
        },
        {
          "internalType": "uint256",
          "name": "cliff",
          "type": "uint256"
        }
      ],
      "name": "vestTokens",
      "outputs": [],
      "stateMutability": "nonpayable",
      "type": "function"
    },
    {
      "inputs": [
        {
          "internalType": "address",
          "name": "",
          "type": "address"
        }
      ],
      "name": "vestedAmounts",
      "outputs": [
        {
          "internalType": "uint256",
          "name": "",
          "type": "uint256"
        }
      ],
      "stateMutability": "view",
      "type": "function"
    }
  ],
  "bytecode": "0x608060405234801562000010575f80fd5b5060405162000ebc38038062000ebc833981810160405281019062000036919062000161565b815f806101000a81548173ffffffffffffffffffffffffffffffffffffffff021916908373ffffffffffffffffffffffffffffffffffffffff1602179055503360015f6101000a81548173ffffffffffffffffffffffffffffffffffffffff021916908373ffffffffffffffffffffffffffffffffffffffff160217905550806003819055505050620001a6565b5f80fd5b5f73ffffffffffffffffffffffffffffffffffffffff82169050919050565b5f620000f382620000c8565b9050919050565b6200010581620000e7565b811462000110575f80fd5b50565b5f815190506200012381620000fa565b92915050565b5f819050919050565b6200013d8162000129565b811462000148575f80fd5b50565b5f815190506200015b8162000132565b92915050565b5f80604083850312156200017a5762000179620000c4565b5b5f620001898582860162000113565b92505060206200019c858286016200014b565b9150509250929050565b610d0880620001b45f395ff3fe608060405234801561000f575f80fd5b5060043610610091575f3560e01c806376ca96c91161006457806376ca96c9146100f75780638da5cb5b14610127578063abcbab8d14610145578063d1ef4e9114610175578063fc0c546a1461019157610091565b8063199cbc5414610095578063251c1aa3146100b35780633b0da260146100d157806348c54b9d146100ed575b5f80fd5b61009d6101af565b6040516100aa919061082e565b60405180910390f35b6100bb6101b5565b6040516100c8919061082e565b60405180910390f35b6100eb60048036038101906100e691906108a5565b6101bb565b005b6100f56103b6565b005b610111600480360381019061010c91906108a5565b6105ce565b60405161011e919061082e565b60405180910390f35b61012f6105e3565b60405161013c91906108df565b60405180910390f35b61015f600480360381019061015a91906108a5565b610608565b60405161016c919061082e565b60405180910390f35b61018f600480360381019061018a9190610922565b61061d565b005b6101996107f3565b6040516101a691906108df565b60405180910390f35b60025481565b60035481565b60015f9054906101000a900473ffffffffffffffffffffffffffffffffffffffff1673ffffffffffffffffffffffffffffffffffffffff163373ffffffffffffffffffffffffffffffffffffffff161461024a576040517f08c379a0000000000000000000000000000000000000000000000000000000008152600401610241906109cc565b60405180910390fd5b5f60045f8373ffffffffffffffffffffffffffffffffffffffff1673ffffffffffffffffffffffffffffffffffffffff1681526020019081526020015f2054116102c9576040517f08c379a00000000000000000000000000000000000000000000000000000000081526004016102c090610a34565b60405180910390fd5b5f60045f8373ffffffffffffffffffffffffffffffffffffffff1673ffffffffffffffffffffffffffffffffffffffff1681526020019081526020015f205490505f60045f8473ffffffffffffffffffffffffffffffffffffffff1673ffffffffffffffffffffffffffffffffffffffff1681526020019081526020015f20819055508060025f82825461035d9190610a7f565b925050819055508173ffffffffffffffffffffffffffffffffffffffff167f57c76f5e278bfbd4eeb5207d287aa5a1a9e1113c65f7eefa540e379a2774d13b826040516103aa919061082e565b60405180910390a25050565b6003544210156103fb576040517f08c379a00000000000000000000000000000000000000000000000000000000081526004016103f290610afc565b60405180910390fd5b5f60045f3373ffffffffffffffffffffffffffffffffffffffff1673ffffffffffffffffffffffffffffffffffffffff1681526020019081526020015f20541161047a576040517f08c379a000000000000000000000000000000000000000000000000000000000815260040161047190610b64565b60405180910390fd5b60055f3373ffffffffffffffffffffffffffffffffffffffff1673ffffffffffffffffffffffffffffffffffffffff1681526020019081526020015f20544210156104fa576040517f08c379a00000000000000000000000000000000000000000000000000000000081526004016104f190610bcc565b60405180910390fd5b5f60045f3373ffffffffffffffffffffffffffffffffffffffff1673ffffffffffffffffffffffffffffffffffffffff1681526020019081526020015f205490505f60045f3373ffffffffffffffffffffffffffffffffffffffff1673ffffffffffffffffffffffffffffffffffffffff1681526020019081526020015f20819055503373ffffffffffffffffffffffffffffffffffffffff167f896e034966eaaf1adc54acc0f257056febbd300c9e47182cf761982cf1f5e430826040516105c3919061082e565b60405180910390a250565b6004602052805f5260405f205f915090505481565b60015f9054906101000a900473ffffffffffffffffffffffffffffffffffffffff1681565b6005602052805f5260405f205f915090505481565b60015f9054906101000a900473ffffffffffffffffffffffffffffffffffffffff1673ffffffffffffffffffffffffffffffffffffffff163373ffffffffffffffffffffffffffffffffffffffff16146106ac576040517f08c379a00000000000000000000000000000000000000000000000000000000081526004016106a3906109cc565b60405180910390fd5b6003548111156106f1576040517f08c379a00000000000000000000000000000000000000000000000000000000081526004016106e890610c5a565b60405180910390fd5b8160045f8573ffffffffffffffffffffffffffffffffffffffff1673ffffffffffffffffffffffffffffffffffffffff1681526020019081526020015f205f82825461073d9190610c78565b925050819055508160025f8282546107559190610c78565b925050819055508060055f8573ffffffffffffffffffffffffffffffffffffffff1673ffffffffffffffffffffffffffffffffffffffff1681526020019081526020015f20819055508273ffffffffffffffffffffffffffffffffffffffff167fe37037c1b3b5a7099de9b4ff0b386af195061ad990fcf5c0c5f84b95d328f76683836040516107e6929190610cab565b60405180910390a2505050565b5f8054906101000a900473ffffffffffffffffffffffffffffffffffffffff1681565b5f819050919050565b61082881610816565b82525050565b5f6020820190506108415f83018461081f565b92915050565b5f80fd5b5f73ffffffffffffffffffffffffffffffffffffffff82169050919050565b5f6108748261084b565b9050919050565b6108848161086a565b811461088e575f80fd5b50565b5f8135905061089f8161087b565b92915050565b5f602082840312156108ba576108b9610847565b5b5f6108c784828501610891565b91505092915050565b6108d98161086a565b82525050565b5f6020820190506108f25f8301846108d0565b92915050565b61090181610816565b811461090b575f80fd5b50565b5f8135905061091c816108f8565b92915050565b5f805f6060848603121561093957610938610847565b5b5f61094686828701610891565b93505060206109578682870161090e565b92505060406109688682870161090e565b9150509250925092565b5f82825260208201905092915050565b7f4e6f7420636f6e7472616374206f776e657200000000000000000000000000005f82015250565b5f6109b6601283610972565b91506109c182610982565b602082019050919050565b5f6020820190508181035f8301526109e3816109aa565b9050919050565b7f4e6f2076657374656420746f6b656e7320746f207265766f6b650000000000005f82015250565b5f610a1e601a83610972565b9150610a29826109ea565b602082019050919050565b5f6020820190508181035f830152610a4b81610a12565b9050919050565b7f4e487b71000000000000000000000000000000000000000000000000000000005f52601160045260245ffd5b5f610a8982610816565b9150610a9483610816565b9250828203905081811115610aac57610aab610a52565b5b92915050565b7f546f6b656e7320617265207374696c6c206c6f636b65640000000000000000005f82015250565b5f610ae6601783610972565b9150610af182610ab2565b602082019050919050565b5f6020820190508181035f830152610b1381610ada565b9050919050565b7f4e6f2076657374656420746f6b656e73000000000000000000000000000000005f82015250565b5f610b4e601083610972565b9150610b5982610b1a565b602082019050919050565b5f6020820190508181035f830152610b7b81610b42565b9050919050565b7f436c69666620706572696f64206e6f74207265616368656400000000000000005f82015250565b5f610bb6601883610972565b9150610bc182610b82565b602082019050919050565b5f6020820190508181035f830152610be381610baa565b9050919050565b7f436c6966662063616e6e6f7420626520616674657220756e6c6f636b2074696d5f8201527f6500000000000000000000000000000000000000000000000000000000000000602082015250565b5f610c44602183610972565b9150610c4f82610bea565b604082019050919050565b5f6020820190508181035f830152610c7181610c38565b9050919050565b5f610c8282610816565b9150610c8d83610816565b9250828201905080821115610ca557610ca4610a52565b5b92915050565b5f604082019050610cbe5f83018561081f565b610ccb602083018461081f565b939250505056fea2646970667358221220599a910726116ec5f9ffaa3446a735bb26984944dd1647f751f706b0ab736dc264736f6c63430008140033",
  "linkReferences": {},
  "deployedLinkReferences": {}
}