{
  "_format": "hh-sol-artifact-1",
  "contractName": "TokenFactory",
  "sourceName": "contracts/core/TokenFactory.sol",
  "abi": [
    {
      "inputs": [],
      "stateMutability": "nonpayable",
      "type": "constructor"
    },
    {
      "anonymous": false,
      "inputs": [
        {
          "indexed": true,
          "internalType": "address",
          "name": "tokenAddress",
          "type": "address"
        },
        {
          "indexed": false,
          "internalType": "string",
          "name": "name",
          "type": "string"
        },
        {
          "indexed": false,
          "internalType": "string",
          "name": "symbol",
          "type": "string"
        },
        {
          "indexed": false,
          "internalType": "uint256",
          "name": "totalSupply",
          "type": "uint256"
        },
        {
          "indexed": true,
          "internalType": "address",
          "name": "owner",
          "type": "address"
        }
      ],
      "name": "TokenCreated",
      "type": "event"
    },
    {
      "anonymous": false,
      "inputs": [
        {
          "indexed": true,
          "internalType": "address",
          "name": "previousOwner",
          "type": "address"
        },
        {
          "indexed": true,
          "internalType": "address",
          "name": "newOwner",
          "type": "address"
        }
      ],
      "name": "TokenOwnershipTransferred",
      "type": "event"
    },
    {
      "inputs": [
        {
          "internalType": "string",
          "name": "name",
          "type": "string"
        },
        {
          "internalType": "string",
          "name": "symbol",
          "type": "string"
        },
        {
          "internalType": "uint256",
          "name": "totalSupply",
          "type": "uint256"
        }
      ],
      "name": "createToken",
      "outputs": [],
      "stateMutability": "nonpayable",
      "type": "function"
    },
    {
      "inputs": [
        {
          "internalType": "uint256",
          "name": "tokenId",
          "type": "uint256"
        }
      ],
      "name": "getTokenInfo",
      "outputs": [
        {
          "components": [
            {
              "internalType": "address",
              "name": "tokenAddress",
              "type": "address"
            },
            {
              "internalType": "string",
              "name": "name",
              "type": "string"
            },
            {
              "internalType": "string",
              "name": "symbol",
              "type": "string"
            },
            {
              "internalType": "uint256",
              "name": "totalSupply",
              "type": "uint256"
            },
            {
              "internalType": "address",
              "name": "creator",
              "type": "address"
            }
          ],
          "internalType": "struct TokenFactory.TokenInfo",
          "name": "",
          "type": "tuple"
        }
      ],
      "stateMutability": "view",
      "type": "function"
    },
    {
      "inputs": [],
      "name": "owner",
      "outputs": [
        {
          "internalType": "address",
          "name": "",
          "type": "address"
        }
      ],
      "stateMutability": "view",
      "type": "function"
    },
    {
      "inputs": [],
      "name": "tokenCount",
      "outputs": [
        {
          "internalType": "uint256",
          "name": "",
          "type": "uint256"
        }
      ],
      "stateMutability": "view",
      "type": "function"
    },
    {
      "inputs": [
        {
          "internalType": "uint256",
          "name": "",
          "type": "uint256"
        }
      ],
      "name": "tokens",
      "outputs": [
        {
          "internalType": "address",
          "name": "tokenAddress",
          "type": "address"
        },
        {
          "internalType": "string",
          "name": "name",
          "type": "string"
        },
        {
          "internalType": "string",
          "name": "symbol",
          "type": "string"
        },
        {
          "internalType": "uint256",
          "name": "totalSupply",
          "type": "uint256"
        },
        {
          "internalType": "address",
          "name": "creator",
          "type": "address"
        }
      ],
      "stateMutability": "view",
      "type": "function"
    },
    {
      "inputs": [
        {
          "internalType": "address",
          "name": "newOwner",
          "type": "address"
        }
      ],
      "name": "transferOwnership",
      "outputs": [],
      "stateMutability": "nonpayable",
      "type": "function"
    }
  ],
  "bytecode": "0x608060405234801561000f575f80fd5b50335f806101000a81548173ffffffffffffffffffffffffffffffffffffffff021916908373ffffffffffffffffffffffffffffffffffffffff160217905550610e738061005c5f395ff3fe608060405234801561000f575f80fd5b5060043610610060575f3560e01c80634f64b2be146100645780635b060530146100985780638c7a63ae146100b45780638da5cb5b146100e45780639f181b5e14610102578063f2fde38b14610120575b5f80fd5b61007e60048036038101906100799190610797565b61013c565b60405161008f95949392919061089a565b60405180910390f35b6100b260048036038101906100ad9190610a25565b6102b8565b005b6100ce60048036038101906100c99190610797565b6102d4565b6040516100db9190610b8d565b60405180910390f35b6100ec610516565b6040516100f99190610bad565b60405180910390f35b61010a610539565b6040516101179190610bc6565b60405180910390f35b61013a60048036038101906101359190610c09565b61053f565b005b6002602052805f5260405f205f91509050805f015f9054906101000a900473ffffffffffffffffffffffffffffffffffffffff169080600101805461018090610c61565b80601f01602080910402602001604051908101604052809291908181526020018280546101ac90610c61565b80156101f75780601f106101ce576101008083540402835291602001916101f7565b820191905f5260205f20905b8154815290600101906020018083116101da57829003601f168201915b50505050509080600201805461020c90610c61565b80601f016020809104026020016040519081016040528092919081815260200182805461023890610c61565b80156102835780601f1061025a57610100808354040283529160200191610283565b820191905f5260205f20905b81548152906001019060200180831161026657829003601f168201915b505050505090806003015490806004015f9054906101000a900473ffffffffffffffffffffffffffffffffffffffff16905085565b60015f8154809291906102ca90610cbe565b9190505550505050565b6102dc6106fb565b6001548210610320576040517f08c379a000000000000000000000000000000000000000000000000000000000815260040161031790610d4f565b60405180910390fd5b60025f8381526020019081526020015f206040518060a00160405290815f82015f9054906101000a900473ffffffffffffffffffffffffffffffffffffffff1673ffffffffffffffffffffffffffffffffffffffff1673ffffffffffffffffffffffffffffffffffffffff1681526020016001820180546103a090610c61565b80601f01602080910402602001604051908101604052809291908181526020018280546103cc90610c61565b80156104175780601f106103ee57610100808354040283529160200191610417565b820191905f5260205f20905b8154815290600101906020018083116103fa57829003601f168201915b5050505050815260200160028201805461043090610c61565b80601f016020809104026020016040519081016040528092919081815260200182805461045c90610c61565b80156104a75780601f1061047e576101008083540402835291602001916104a7565b820191905f5260205f20905b81548152906001019060200180831161048a57829003601f168201915b5050505050815260200160038201548152602001600482015f9054906101000a900473ffffffffffffffffffffffffffffffffffffffff1673ffffffffffffffffffffffffffffffffffffffff1673ffffffffffffffffffffffffffffffffffffffff16815250509050919050565b5f8054906101000a900473ffffffffffffffffffffffffffffffffffffffff1681565b60015481565b5f8054906101000a900473ffffffffffffffffffffffffffffffffffffffff1673ffffffffffffffffffffffffffffffffffffffff163373ffffffffffffffffffffffffffffffffffffffff16146105cc576040517f08c379a00000000000000000000000000000000000000000000000000000000081526004016105c390610db7565b60405180910390fd5b5f73ffffffffffffffffffffffffffffffffffffffff168173ffffffffffffffffffffffffffffffffffffffff160361063a576040517f08c379a000000000000000000000000000000000000000000000000000000000815260040161063190610e1f565b60405180910390fd5b5f805f9054906101000a900473ffffffffffffffffffffffffffffffffffffffff169050815f806101000a81548173ffffffffffffffffffffffffffffffffffffffff021916908373ffffffffffffffffffffffffffffffffffffffff1602179055508173ffffffffffffffffffffffffffffffffffffffff168173ffffffffffffffffffffffffffffffffffffffff167f0670e929e0da48f4446360abae5c94415b26a39a98993d2a69f1864d5130186c60405160405180910390a35050565b6040518060a001604052805f73ffffffffffffffffffffffffffffffffffffffff16815260200160608152602001606081526020015f81526020015f73ffffffffffffffffffffffffffffffffffffffff1681525090565b5f604051905090565b5f80fd5b5f80fd5b5f819050919050565b61077681610764565b8114610780575f80fd5b50565b5f813590506107918161076d565b92915050565b5f602082840312156107ac576107ab61075c565b5b5f6107b984828501610783565b91505092915050565b5f73ffffffffffffffffffffffffffffffffffffffff82169050919050565b5f6107eb826107c2565b9050919050565b6107fb816107e1565b82525050565b5f81519050919050565b5f82825260208201905092915050565b5f5b8381101561083857808201518184015260208101905061081d565b5f8484015250505050565b5f601f19601f8301169050919050565b5f61085d82610801565b610867818561080b565b935061087781856020860161081b565b61088081610843565b840191505092915050565b61089481610764565b82525050565b5f60a0820190506108ad5f8301886107f2565b81810360208301526108bf8187610853565b905081810360408301526108d38186610853565b90506108e2606083018561088b565b6108ef60808301846107f2565b9695505050505050565b5f80fd5b5f80fd5b7f4e487b71000000000000000000000000000000000000000000000000000000005f52604160045260245ffd5b61093782610843565b810181811067ffffffffffffffff8211171561095657610955610901565b5b80604052505050565b5f610968610753565b9050610974828261092e565b919050565b5f67ffffffffffffffff82111561099357610992610901565b5b61099c82610843565b9050602081019050919050565b828183375f83830152505050565b5f6109c96109c484610979565b61095f565b9050828152602081018484840111156109e5576109e46108fd565b5b6109f08482856109a9565b509392505050565b5f82601f830112610a0c57610a0b6108f9565b5b8135610a1c8482602086016109b7565b91505092915050565b5f805f60608486031215610a3c57610a3b61075c565b5b5f84013567ffffffffffffffff811115610a5957610a58610760565b5b610a65868287016109f8565b935050602084013567ffffffffffffffff811115610a8657610a85610760565b5b610a92868287016109f8565b9250506040610aa386828701610783565b9150509250925092565b610ab6816107e1565b82525050565b5f82825260208201905092915050565b5f610ad682610801565b610ae08185610abc565b9350610af081856020860161081b565b610af981610843565b840191505092915050565b610b0d81610764565b82525050565b5f60a083015f830151610b285f860182610aad565b5060208301518482036020860152610b408282610acc565b91505060408301518482036040860152610b5a8282610acc565b9150506060830151610b6f6060860182610b04565b506080830151610b826080860182610aad565b508091505092915050565b5f6020820190508181035f830152610ba58184610b13565b905092915050565b5f602082019050610bc05f8301846107f2565b92915050565b5f602082019050610bd95f83018461088b565b92915050565b610be8816107e1565b8114610bf2575f80fd5b50565b5f81359050610c0381610bdf565b92915050565b5f60208284031215610c1e57610c1d61075c565b5b5f610c2b84828501610bf5565b91505092915050565b7f4e487b71000000000000000000000000000000000000000000000000000000005f52602260045260245ffd5b5f6002820490506001821680610c7857607f821691505b602082108103610c8b57610c8a610c34565b5b50919050565b7f4e487b71000000000000000000000000000000000000000000000000000000005f52601160045260245ffd5b5f610cc882610764565b91507fffffffffffffffffffffffffffffffffffffffffffffffffffffffffffffffff8203610cfa57610cf9610c91565b5b600182019050919050565b7f546f6b656e20646f6573206e6f742065786973740000000000000000000000005f82015250565b5f610d3960148361080b565b9150610d4482610d05565b602082019050919050565b5f6020820190508181035f830152610d6681610d2d565b9050919050565b7f4e6f7420636f6e7472616374206f776e657200000000000000000000000000005f82015250565b5f610da160128361080b565b9150610dac82610d6d565b602082019050919050565b5f6020820190508181035f830152610dce81610d95565b9050919050565b7f496e76616c6964206e6577206f776e65720000000000000000000000000000005f82015250565b5f610e0960118361080b565b9150610e1482610dd5565b602082019050919050565b5f6020820190508181035f830152610e3681610dfd565b905091905056fea2646970667358221220c850570d68d2edeca5472f0c49ffd4b9b987ae335fbf157b5898873c31e9462964736f6c63430008140033",
  "linkReferences": {},
  "deployedLinkReferences": {}
}