{
  "_format": "hh-sol-artifact-1",
  "contractName": "MockLiquidityProvider",
  "sourceName": "contracts/mocks/MockLiquidityProvider.sol",
  "abi": [
    {
      "inputs": [
        {
          "internalType": "address",
          "name": "_liquidityPool",
          "type": "address"
        }
      ],
      "stateMutability": "nonpayable",
      "type": "constructor"
    },
    {
      "inputs": [
        {
          "internalType": "uint256",
          "name": "amount",
          "type": "uint256"
        }
      ],
      "name": "addLiquidityForTesting",
      "outputs": [],
      "stateMutability": "nonpayable",
      "type": "function"
    },
    {
      "inputs": [],
      "name": "checkLiquidity",
      "outputs": [
        {
          "internalType": "uint256",
          "name": "",
          "type": "uint256"
        }
      ],
      "stateMutability": "view",
      "type": "function"
    },
    {
      "inputs": [],
      "name": "liquidityPool",
      "outputs": [
        {
          "internalType": "contract LiquidityPool",
          "name": "",
          "type": "address"
        }
      ],
      "stateMutability": "view",
      "type": "function"
    },
    {
      "inputs": [],
      "name": "liquidityProvider",
      "outputs": [
        {
          "internalType": "address",
          "name": "",
          "type": "address"
        }
      ],
      "stateMutability": "view",
      "type": "function"
    },
    {
      "inputs": [
        {
          "internalType": "uint256",
          "name": "amount",
          "type": "uint256"
        }
      ],
      "name": "removeLiquidityForTesting",
      "outputs": [],
      "stateMutability": "nonpayable",
      "type": "function"
    }
  ],
  "bytecode": "0x608060405234801561000f575f80fd5b5060405161086338038061086383398181016040528101906100319190610114565b805f806101000a81548173ffffffffffffffffffffffffffffffffffffffff021916908373ffffffffffffffffffffffffffffffffffffffff1602179055503360015f6101000a81548173ffffffffffffffffffffffffffffffffffffffff021916908373ffffffffffffffffffffffffffffffffffffffff1602179055505061013f565b5f80fd5b5f73ffffffffffffffffffffffffffffffffffffffff82169050919050565b5f6100e3826100ba565b9050919050565b6100f3816100d9565b81146100fd575f80fd5b50565b5f8151905061010e816100ea565b92915050565b5f60208284031215610129576101286100b6565b5b5f61013684828501610100565b91505092915050565b6107178061014c5f395ff3fe608060405234801561000f575f80fd5b5060043610610055575f3560e01c80635b8bec5514610059578063614d908414610077578063665a11ca146100935780639745e62a146100b1578063d82c52d6146100cd575b5f80fd5b6100616100eb565b60405161006e919061045f565b60405180910390f35b610091600480360381019061008c91906104af565b610110565b005b61009b610227565b6040516100a89190610535565b60405180910390f35b6100cb60048036038101906100c691906104af565b61024a565b005b6100d5610361565b6040516100e2919061055d565b60405180910390f35b60015f9054906101000a900473ffffffffffffffffffffffffffffffffffffffff1681565b60015f9054906101000a900473ffffffffffffffffffffffffffffffffffffffff1673ffffffffffffffffffffffffffffffffffffffff163373ffffffffffffffffffffffffffffffffffffffff161461019f576040517f08c379a0000000000000000000000000000000000000000000000000000000008152600401610196906105f6565b60405180910390fd5b5f8054906101000a900473ffffffffffffffffffffffffffffffffffffffff1673ffffffffffffffffffffffffffffffffffffffff16639c8f9f23826040518263ffffffff1660e01b81526004016101f7919061055d565b5f604051808303815f87803b15801561020e575f80fd5b505af1158015610220573d5f803e3d5ffd5b5050505050565b5f8054906101000a900473ffffffffffffffffffffffffffffffffffffffff1681565b60015f9054906101000a900473ffffffffffffffffffffffffffffffffffffffff1673ffffffffffffffffffffffffffffffffffffffff163373ffffffffffffffffffffffffffffffffffffffff16146102d9576040517f08c379a00000000000000000000000000000000000000000000000000000000081526004016102d090610684565b60405180910390fd5b5f8054906101000a900473ffffffffffffffffffffffffffffffffffffffff1673ffffffffffffffffffffffffffffffffffffffff166351c6590a826040518263ffffffff1660e01b8152600401610331919061055d565b5f604051808303815f87803b158015610348575f80fd5b505af115801561035a573d5f803e3d5ffd5b5050505050565b5f805f9054906101000a900473ffffffffffffffffffffffffffffffffffffffff1673ffffffffffffffffffffffffffffffffffffffff1663a747b93b60015f9054906101000a900473ffffffffffffffffffffffffffffffffffffffff166040518263ffffffff1660e01b81526004016103dc919061045f565b602060405180830381865afa1580156103f7573d5f803e3d5ffd5b505050506040513d601f19601f8201168201806040525081019061041b91906106b6565b905090565b5f73ffffffffffffffffffffffffffffffffffffffff82169050919050565b5f61044982610420565b9050919050565b6104598161043f565b82525050565b5f6020820190506104725f830184610450565b92915050565b5f80fd5b5f819050919050565b61048e8161047c565b8114610498575f80fd5b50565b5f813590506104a981610485565b92915050565b5f602082840312156104c4576104c3610478565b5b5f6104d18482850161049b565b91505092915050565b5f819050919050565b5f6104fd6104f86104f384610420565b6104da565b610420565b9050919050565b5f61050e826104e3565b9050919050565b5f61051f82610504565b9050919050565b61052f81610515565b82525050565b5f6020820190506105485f830184610526565b92915050565b6105578161047c565b82525050565b5f6020820190506105705f83018461054e565b92915050565b5f82825260208201905092915050565b7f4f6e6c79206c69717569646974792070726f76696465722063616e2072656d6f5f8201527f7665206c69717569646974790000000000000000000000000000000000000000602082015250565b5f6105e0602c83610576565b91506105eb82610586565b604082019050919050565b5f6020820190508181035f83015261060d816105d4565b9050919050565b7f4f6e6c79206c69717569646974792070726f76696465722063616e20616464205f8201527f6c69717569646974790000000000000000000000000000000000000000000000602082015250565b5f61066e602983610576565b915061067982610614565b604082019050919050565b5f6020820190508181035f83015261069b81610662565b9050919050565b5f815190506106b081610485565b92915050565b5f602082840312156106cb576106ca610478565b5b5f6106d8848285016106a2565b9150509291505056fea264697066735822122097171746eaeb8a861a3b90cbf2809e1895c602188d06ea79527c9d61235ac9ba64736f6c63430008140033",
  "linkReferences": {},
  "deployedLinkReferences": {}
}