{
  "_format": "hh-sol-artifact-1",
  "contractName": "LiquidityPool",
  "sourceName": "contracts/core/LiquidityPool.sol",
  "abi": [
    {
      "inputs": [
        {
          "internalType": "address",
          "name": "_token",
          "type": "address"
        }
      ],
      "stateMutability": "nonpayable",
      "type": "constructor"
    },
    {
      "anonymous": false,
      "inputs": [
        {
          "indexed": true,
          "internalType": "address",
          "name": "collector",
          "type": "address"
        },
        {
          "indexed": false,
          "internalType": "uint256",
          "name": "amount",
          "type": "uint256"
        }
      ],
      "name": "FeeCollected",
      "type": "event"
    },
    {
      "anonymous": false,
      "inputs": [
        {
          "indexed": true,
          "internalType": "address",
          "name": "provider",
          "type": "address"
        },
        {
          "indexed": false,
          "internalType": "uint256",
          "name": "amount",
          "type": "uint256"
        }
      ],
      "name": "LiquidityAdded",
      "type": "event"
    },
    {
      "anonymous": false,
      "inputs": [
        {
          "indexed": true,
          "internalType": "address",
          "name": "provider",
          "type": "address"
        },
        {
          "indexed": false,
          "internalType": "uint256",
          "name": "amount",
          "type": "uint256"
        }
      ],
      "name": "LiquidityRemoved",
      "type": "event"
    },
    {
      "inputs": [
        {
          "internalType": "uint256",
          "name": "amount",
          "type": "uint256"
        }
      ],
      "name": "addLiquidity",
      "outputs": [],
      "stateMutability": "nonpayable",
      "type": "function"
    },
    {
      "inputs": [
        {
          "internalType": "uint256",
          "name": "amount",
          "type": "uint256"
        }
      ],
      "name": "collectFees",
      "outputs": [],
      "stateMutability": "nonpayable",
      "type": "function"
    },
    {
      "inputs": [
        {
          "internalType": "address",
          "name": "provider",
          "type": "address"
        }
      ],
      "name": "getLiquidity",
      "outputs": [
        {
          "internalType": "uint256",
          "name": "",
          "type": "uint256"
        }
      ],
      "stateMutability": "view",
      "type": "function"
    },
    {
      "inputs": [
        {
          "internalType": "address",
          "name": "",
          "type": "address"
        }
      ],
      "name": "liquidity",
      "outputs": [
        {
          "internalType": "uint256",
          "name": "amount",
          "type": "uint256"
        },
        {
          "internalType": "uint256",
          "name": "depositTime",
          "type": "uint256"
        }
      ],
      "stateMutability": "view",
      "type": "function"
    },
    {
      "inputs": [],
      "name": "owner",
      "outputs": [
        {
          "internalType": "address",
          "name": "",
          "type": "address"
        }
      ],
      "stateMutability": "view",
      "type": "function"
    },
    {
      "inputs": [
        {
          "internalType": "uint256",
          "name": "amount",
          "type": "uint256"
        }
      ],
      "name": "removeLiquidity",
      "outputs": [],
      "stateMutability": "nonpayable",
      "type": "function"
    },
    {
      "inputs": [],
      "name": "token",
      "outputs": [
        {
          "internalType": "address",
          "name": "",
          "type": "address"
        }
      ],
      "stateMutability": "view",
      "type": "function"
    },
    {
      "inputs": [],
      "name": "totalLiquidity",
      "outputs": [
        {
          "internalType": "uint256",
          "name": "",
          "type": "uint256"
        }
      ],
      "stateMutability": "view",
      "type": "function"
    }
  ],
  "bytecode": "0x608060405234801561000f575f80fd5b50604051610cdd380380610cdd83398181016040528101906100319190610114565b805f806101000a81548173ffffffffffffffffffffffffffffffffffffffff021916908373ffffffffffffffffffffffffffffffffffffffff1602179055503360015f6101000a81548173ffffffffffffffffffffffffffffffffffffffff021916908373ffffffffffffffffffffffffffffffffffffffff1602179055505061013f565b5f80fd5b5f73ffffffffffffffffffffffffffffffffffffffff82169050919050565b5f6100e3826100ba565b9050919050565b6100f3816100d9565b81146100fd575f80fd5b50565b5f8151905061010e816100ea565b92915050565b5f60208284031215610129576101286100b6565b5b5f61013684828501610100565b91505092915050565b610b918061014c5f395ff3fe608060405234801561000f575f80fd5b5060043610610086575f3560e01c8063a747b93b11610059578063a747b93b146100fe578063b17acdcd1461012e578063b8c876b11461014a578063fc0c546a1461017b57610086565b806315770f921461008a57806351c6590a146100a85780638da5cb5b146100c45780639c8f9f23146100e2575b5f80fd5b610092610199565b60405161009f91906106e7565b60405180910390f35b6100c260048036038101906100bd919061072e565b61019f565b005b6100cc6102e4565b6040516100d99190610798565b60405180910390f35b6100fc60048036038101906100f7919061072e565b610309565b005b610118600480360381019061011391906107db565b6104da565b60405161012591906106e7565b60405180910390f35b6101486004803603810190610143919061072e565b610522565b005b610164600480360381019061015f91906107db565b61068c565b604051610172929190610806565b60405180910390f35b6101836106ac565b6040516101909190610798565b60405180910390f35b60025481565b5f81116101e1576040517f08c379a00000000000000000000000000000000000000000000000000000000081526004016101d890610887565b60405180910390fd5b8060035f3373ffffffffffffffffffffffffffffffffffffffff1673ffffffffffffffffffffffffffffffffffffffff1681526020019081526020015f205f015f82825461022f91906108d2565b925050819055504260035f3373ffffffffffffffffffffffffffffffffffffffff1673ffffffffffffffffffffffffffffffffffffffff1681526020019081526020015f20600101819055508060025f82825461028c91906108d2565b925050819055503373ffffffffffffffffffffffffffffffffffffffff167fc17cea59c2955cb181b03393209566960365771dbba9dc3d510180e7cb312088826040516102d991906106e7565b60405180910390a250565b60015f9054906101000a900473ffffffffffffffffffffffffffffffffffffffff1681565b8060035f3373ffffffffffffffffffffffffffffffffffffffff1673ffffffffffffffffffffffffffffffffffffffff1681526020019081526020015f205f0154101561038b576040517f08c379a00000000000000000000000000000000000000000000000000000000081526004016103829061094f565b60405180910390fd5b6201518060035f3373ffffffffffffffffffffffffffffffffffffffff1673ffffffffffffffffffffffffffffffffffffffff1681526020019081526020015f20600101546103da91906108d2565b42101561041c576040517f08c379a0000000000000000000000000000000000000000000000000000000008152600401610413906109b7565b60405180910390fd5b8060035f3373ffffffffffffffffffffffffffffffffffffffff1673ffffffffffffffffffffffffffffffffffffffff1681526020019081526020015f205f015f82825461046a91906109d5565b925050819055508060025f82825461048291906109d5565b925050819055503373ffffffffffffffffffffffffffffffffffffffff167fc2c3f06e49b9f15e7b4af9055e183b0d73362e033ad82a07dec9bf9840171719826040516104cf91906106e7565b60405180910390a250565b5f60035f8373ffffffffffffffffffffffffffffffffffffffff1673ffffffffffffffffffffffffffffffffffffffff1681526020019081526020015f205f01549050919050565b60015f9054906101000a900473ffffffffffffffffffffffffffffffffffffffff1673ffffffffffffffffffffffffffffffffffffffff163373ffffffffffffffffffffffffffffffffffffffff16146105b1576040517f08c379a00000000000000000000000000000000000000000000000000000000081526004016105a890610a52565b60405180910390fd5b600a6002546105c09190610a9d565b811115610602576040517f08c379a00000000000000000000000000000000000000000000000000000000081526004016105f990610b3d565b60405180910390fd5b8060025f82825461061391906109d5565b9250508190555060015f9054906101000a900473ffffffffffffffffffffffffffffffffffffffff1673ffffffffffffffffffffffffffffffffffffffff167f06c5efeff5c320943d265dc4e5f1af95ad523555ce0c1957e367dda5514572df8260405161068191906106e7565b60405180910390a250565b6003602052805f5260405f205f91509050805f0154908060010154905082565b5f8054906101000a900473ffffffffffffffffffffffffffffffffffffffff1681565b5f819050919050565b6106e1816106cf565b82525050565b5f6020820190506106fa5f8301846106d8565b92915050565b5f80fd5b61070d816106cf565b8114610717575f80fd5b50565b5f8135905061072881610704565b92915050565b5f6020828403121561074357610742610700565b5b5f6107508482850161071a565b91505092915050565b5f73ffffffffffffffffffffffffffffffffffffffff82169050919050565b5f61078282610759565b9050919050565b61079281610778565b82525050565b5f6020820190506107ab5f830184610789565b92915050565b6107ba81610778565b81146107c4575f80fd5b50565b5f813590506107d5816107b1565b92915050565b5f602082840312156107f0576107ef610700565b5b5f6107fd848285016107c7565b91505092915050565b5f6040820190506108195f8301856106d8565b61082660208301846106d8565b9392505050565b5f82825260208201905092915050565b7f416d6f756e74206d7573742062652067726561746572207468616e207a65726f5f82015250565b5f61087160208361082d565b915061087c8261083d565b602082019050919050565b5f6020820190508181035f83015261089e81610865565b9050919050565b7f4e487b71000000000000000000000000000000000000000000000000000000005f52601160045260245ffd5b5f6108dc826106cf565b91506108e7836106cf565b92508282019050808211156108ff576108fe6108a5565b5b92915050565b7f496e73756666696369656e74206c6971756964697479000000000000000000005f82015250565b5f61093960168361082d565b915061094482610905565b602082019050919050565b5f6020820190508181035f8301526109668161092d565b9050919050565b7f4c6971756964697479206c6f636b656420666f7220323420686f7572730000005f82015250565b5f6109a1601d8361082d565b91506109ac8261096d565b602082019050919050565b5f6020820190508181035f8301526109ce81610995565b9050919050565b5f6109df826106cf565b91506109ea836106cf565b9250828203905081811115610a0257610a016108a5565b5b92915050565b7f4e6f7420636f6e7472616374206f776e657200000000000000000000000000005f82015250565b5f610a3c60128361082d565b9150610a4782610a08565b602082019050919050565b5f6020820190508181035f830152610a6981610a30565b9050919050565b7f4e487b71000000000000000000000000000000000000000000000000000000005f52601260045260245ffd5b5f610aa7826106cf565b9150610ab2836106cf565b925082610ac257610ac1610a70565b5b828204905092915050565b7f43616e6e6f7420636f6c6c656374206d6f7265207468616e20313025206f66205f8201527f6c69717569646974790000000000000000000000000000000000000000000000602082015250565b5f610b2760298361082d565b9150610b3282610acd565b604082019050919050565b5f6020820190508181035f830152610b5481610b1b565b905091905056fea26469706673582212205a23428ab3317122951564e59f4241f6f14c22905bf8ea7c5a52a84121e70e9664736f6c63430008140033",
  "linkReferences": {},
  "deployedLinkReferences": {}
}